{
	"_format": "hh-sol-artifact-1",
	"contractName": "MerchantBackend",
	"sourceName": "contracts/MerchantBackend.sol",
	"abi": [
		{
			"inputs": [],
			"stateMutability": "payable",
			"type": "constructor"
		},
		{
			"anonymous": false,
			"inputs": [
				{
					"indexed": false,
					"internalType": "address",
					"name": "tokenAddress",
					"type": "address"
				}
			],
			"name": "CreatedToken",
			"type": "event"
		},
		{
			"anonymous": false,
			"inputs": [
				{
					"indexed": false,
					"internalType": "int64[]",
					"name": "serialNumbers",
					"type": "int64[]"
				}
			],
			"name": "MintedToken",
			"type": "event"
		},
		{
			"anonymous": false,
			"inputs": [
				{
					"indexed": false,
					"internalType": "int256",
					"name": "response",
					"type": "int256"
				}
			],
			"name": "Response",
			"type": "event"
		},
		{
			"inputs": [
				{
					"internalType": "address",
					"name": "nftAddress",
					"type": "address"
				},
				{
					"internalType": "int64",
					"name": "serial",
					"type": "int64"
				},
				{
					"internalType": "uint64",
					"name": "duration",
					"type": "uint64"
				}
			],
			"name": "borrowing",
			"outputs": [],
			"stateMutability": "payable",
			"type": "function"
		},
		{
			"inputs": [
				{
					"internalType": "int64",
					"name": "",
					"type": "int64"
				}
			],
			"name": "cars",
			"outputs": [
				{
					"internalType": "uint256",
					"name": "dailyRate",
					"type": "uint256"
				},
				{
					"internalType": "uint256",
					"name": "lateRate",
					"type": "uint256"
				},
				{
					"internalType": "uint256",
					"name": "deposit",
					"type": "uint256"
				},
				{
					"internalType": "uint256",
					"name": "returnBy",
					"type": "uint256"
				}
			],
			"stateMutability": "view",
			"type": "function"
		},
		{
			"inputs": [
				{
					"internalType": "string",
					"name": "name",
					"type": "string"
				},
				{
					"internalType": "string",
					"name": "symbol",
					"type": "string"
				}
			],
			"name": "createNFT",
			"outputs": [],
			"stateMutability": "payable",
			"type": "function"
		},
		{
			"inputs": [],
			"name": "ftAddress",
			"outputs": [
				{
					"internalType": "address",
					"name": "",
					"type": "address"
				}
			],
			"stateMutability": "view",
			"type": "function"
		},
		{
			"inputs": [
				{
					"internalType": "address",
					"name": "token",
					"type": "address"
				}
			],
			"name": "getTokenExpiryInfo",
			"outputs": [
				{
					"internalType": "int256",
					"name": "responseCode",
					"type": "int256"
				},
				{
					"components": [
						{
							"internalType": "uint32",
							"name": "second",
							"type": "uint32"
						},
						{
							"internalType": "address",
							"name": "autoRenewAccount",
							"type": "address"
						},
						{
							"internalType": "uint32",
							"name": "autoRenewPeriod",
							"type": "uint32"
						}
					],
					"internalType": "struct IHederaTokenService.Expiry",
					"name": "expiryInfo",
					"type": "tuple"
				}
			],
			"stateMutability": "nonpayable",
			"type": "function"
		},
		{
			"inputs": [
				{
					"internalType": "address",
					"name": "token",
					"type": "address"
				},
				{
					"internalType": "address",
					"name": "account",
					"type": "address"
				}
			],
			"name": "grantTokenKyc",
			"outputs": [
				{
					"internalType": "int64",
					"name": "responseCode",
					"type": "int64"
				}
			],
			"stateMutability": "nonpayable",
			"type": "function"
		},
		{
			"inputs": [
				{
					"internalType": "address",
					"name": "token",
					"type": "address"
				},
				{
					"internalType": "address",
					"name": "account",
					"type": "address"
				}
			],
			"name": "isKyc",
			"outputs": [
				{
					"internalType": "int64",
					"name": "responseCode",
					"type": "int64"
				},
				{
					"internalType": "bool",
					"name": "kycGranted",
					"type": "bool"
				}
			],
			"stateMutability": "nonpayable",
			"type": "function"
		},
		{
			"inputs": [
				{
					"internalType": "address",
					"name": "token",
					"type": "address"
				},
				{
					"internalType": "bytes[]",
					"name": "metadata",
					"type": "bytes[]"
				},
				{
					"internalType": "uint256",
					"name": "_dailyRate",
					"type": "uint256"
				},
				{
					"internalType": "uint256",
					"name": "_lateRate",
					"type": "uint256"
				}
			],
			"name": "mintNFT",
			"outputs": [],
			"stateMutability": "nonpayable",
			"type": "function"
		},
		{
			"inputs": [],
			"name": "owner",
			"outputs": [
				{
					"internalType": "address",
					"name": "",
					"type": "address"
				}
			],
			"stateMutability": "view",
			"type": "function"
		},
		{
			"inputs": [
				{
					"internalType": "address",
					"name": "token",
					"type": "address"
				}
			],
			"name": "pauseToken",
			"outputs": [
				{
					"internalType": "int256",
					"name": "responseCode",
					"type": "int256"
				}
			],
			"stateMutability": "nonpayable",
			"type": "function"
		},
		{
			"inputs": [
				{
					"internalType": "address",
					"name": "nftAddress",
					"type": "address"
				},
				{
					"internalType": "int64",
					"name": "serial",
					"type": "int64"
				}
			],
			"name": "returning",
			"outputs": [],
			"stateMutability": "payable",
			"type": "function"
		},
		{
			"inputs": [
				{
					"internalType": "address",
					"name": "token",
					"type": "address"
				},
				{
					"internalType": "address",
					"name": "account",
					"type": "address"
				}
			],
			"name": "revokeTokenKyc",
			"outputs": [
				{
					"internalType": "int64",
					"name": "responseCode",
					"type": "int64"
				}
			],
			"stateMutability": "nonpayable",
			"type": "function"
		},
		{
			"inputs": [
				{
					"internalType": "address",
					"name": "receiver",
					"type": "address"
				},
				{
					"internalType": "int64",
					"name": "amount",
					"type": "int64"
				}
			],
			"name": "scoring",
			"outputs": [],
			"stateMutability": "nonpayable",
			"type": "function"
		},
		{
			"inputs": [
				{
					"internalType": "address",
					"name": "token",
					"type": "address"
				}
			],
			"name": "unpauseToken",
			"outputs": [
				{
					"internalType": "int256",
					"name": "responseCode",
					"type": "int256"
				}
			],
			"stateMutability": "nonpayable",
			"type": "function"
		},
		{
			"inputs": [
				{
					"internalType": "address",
					"name": "token",
					"type": "address"
				},
				{
					"components": [
						{
							"internalType": "uint32",
							"name": "second",
							"type": "uint32"
						},
						{
							"internalType": "address",
							"name": "autoRenewAccount",
							"type": "address"
						},
						{
							"internalType": "uint32",
							"name": "autoRenewPeriod",
							"type": "uint32"
						}
					],
					"internalType": "struct IHederaTokenService.Expiry",
					"name": "expiryInfo",
					"type": "tuple"
				}
			],
			"name": "updateTokenExpiryInfo",
			"outputs": [
				{
					"internalType": "int256",
					"name": "responseCode",
					"type": "int256"
				}
			],
			"stateMutability": "nonpayable",
			"type": "function"
		},
		{
			"inputs": [
				{
					"internalType": "address",
					"name": "token",
					"type": "address"
				},
				{
					"components": [
						{
							"internalType": "string",
							"name": "name",
							"type": "string"
						},
						{
							"internalType": "string",
							"name": "symbol",
							"type": "string"
						},
						{
							"internalType": "address",
							"name": "treasury",
							"type": "address"
						},
						{
							"internalType": "string",
							"name": "memo",
							"type": "string"
						},
						{
							"internalType": "bool",
							"name": "tokenSupplyType",
							"type": "bool"
						},
						{
							"internalType": "int64",
							"name": "maxSupply",
							"type": "int64"
						},
						{
							"internalType": "bool",
							"name": "freezeDefault",
							"type": "bool"
						},
						{
							"components": [
								{
									"internalType": "uint256",
									"name": "keyType",
									"type": "uint256"
								},
								{
									"components": [
										{
											"internalType": "bool",
											"name": "inheritAccountKey",
											"type": "bool"
										},
										{
											"internalType": "address",
											"name": "contractId",
											"type": "address"
										},
										{
											"internalType": "bytes",
											"name": "ed25519",
											"type": "bytes"
										},
										{
											"internalType": "bytes",
											"name": "ECDSA_secp256k1",
											"type": "bytes"
										},
										{
											"internalType": "address",
											"name": "delegatableContractId",
											"type": "address"
										}
									],
									"internalType": "struct IHederaTokenService.KeyValue",
									"name": "key",
									"type": "tuple"
								}
							],
							"internalType": "struct IHederaTokenService.TokenKey[]",
							"name": "tokenKeys",
							"type": "tuple[]"
						},
						{
							"components": [
								{
									"internalType": "uint32",
									"name": "second",
									"type": "uint32"
								},
								{
									"internalType": "address",
									"name": "autoRenewAccount",
									"type": "address"
								},
								{
									"internalType": "uint32",
									"name": "autoRenewPeriod",
									"type": "uint32"
								}
							],
							"internalType": "struct IHederaTokenService.Expiry",
							"name": "expiry",
							"type": "tuple"
						}
					],
					"internalType": "struct IHederaTokenService.HederaToken",
					"name": "tokenInfo",
					"type": "tuple"
				}
			],
			"name": "updateTokenInfo",
			"outputs": [
				{
					"internalType": "int256",
					"name": "responseCode",
					"type": "int256"
				}
			],
			"stateMutability": "nonpayable",
			"type": "function"
		}
	],
	"bytecode": "0x600160208181527fa6eef7e35abe7026729641147f7915573c7e97b47efa546f5f6e3230263bcb499190915560027fcc69885fda6bcc1a4ace058b4a62bf5e179ea78fd58a1ccd71c22cc9b688792f5560047fd9d16d34ffb15ba3a3d852f0d403e2ce1d691fb54de27ac87cd2f993f3ec330f5560087f7dfe757ecd65cbd7922a9c0161e935dd7fdbcc0e999689c7d31633896b1fc60b5560107fedc95719e9a3b28dd8e80877cb5880a9be7de1a13fc8b05e7999683b6b567643557fe2689cd4a84e23ad2f564004f1c9013e9589d260bde6380aba3ca7e09e4df40c8190556006600090815260407f8f331abe73332f95a25873e8b430885974c0409691f89d643119a11623a7924a8190556101008290526101208290526101408290526060610160526101a08290526101c08290526101e082905260116102009081527052657075746174696f6e20546f6b656e7360781b61022052608090815260036102409081526205245560ec1b6102605260a05260146102809081527f52455020546f6b656e732042793a206b69742d740000000000000000000000006102a05260e0523060c08190526103209092526102c08381526102e092909252626acfc06103005261018091909152918190620001e99084906103e890849062000fb662000262821b17901c565b909250905060168214620001fc57600080fd5b600280546001600160a01b0383166001600160a01b0319918216811790925560038054909116331790556040519081527f7bb17726df1f3adee8aa00ba8e8bc5d6f182af3bbf77604639cb7f008dd3b4ed9060200160405180910390a150505062000678565b600080848061010001516000015163ffffffff1660001480156200029357506101008101516040015163ffffffff16155b15620002aa576101008101516276a7006040909101525b6000806101676001600160a01b03163463c23baeb660e01b8a8a8a604051602401620002d993929190620004ce565b60408051601f198184030181529181526020820180516001600160e01b03166001600160e01b03199094169390931790925290516200031991906200060b565b60006040518083038185875af1925050503d806000811462000358576040519150601f19603f3d011682016040523d82523d6000602084013e6200035d565b606091505b50915091508162000372576015600062000388565b8080602001905181019062000388919062000629565b60039190910b999098509650505050505050565b60005b83811015620003b95781810151838201526020016200039f565b83811115620003c9576000848401525b50505050565b60008151808452620003e98160208601602086016200039c565b601f01601f19169290920160200192915050565b600082825180855260208086019550808260051b84010181860160005b84811015620004c157858303601f1901895281518051845284015160408585018190528151151581860152818601516001600160a01b039081166060808801919091529183015160a060808089018290529193909290916200048060e08a0186620003cf565b92860151898403603f1901858b01529294506200049e8584620003cf565b9501511660c097909701969096525050988401989250908301906001016200041a565b5090979650505050505050565b6060815260008451610160806060850152620004ef6101c0850183620003cf565b91506020870151605f19808685030160808701526200050f8483620003cf565b9350604089015191506200052e60a08701836001600160a01b03169052565b60608901519150808685030160c08701526200054b8483620003cf565b9350608089015191506200056360e087018315159052565b60a089015191506101006200057c8188018460070b9052565b60c08a0151151561012088015260e08a015187860383016101408901529250620005a78584620003fd565b9450808a015192505050620005e482860182805163ffffffff90811683526020808301516001600160a01b03169084015260409182015116910152565b50506001600160401b0385166020840152905063ffffffff83166040830152949350505050565b600082516200061f8184602087016200039c565b9190910192915050565b600080604083850312156200063d57600080fd5b82518060030b81146200064f57600080fd5b60208401519092506001600160a01b03811681146200066d57600080fd5b809150509250929050565b6123ee80620006886000396000f3fe6080604052600436106100f35760003560e01c80637c41ad2c1161008a578063af99c63311610059578063af99c633146102e0578063d614cdb814610300578063dbc8c0ec1461032e578063f2c31ff41461034157600080fd5b80637c41ad2c1461025a57806386b3f8661461027a5780638da5cb5b1461028d5780638f8d7f99146102ad57600080fd5b80633b3bff0f116100c65780633b3bff0f146101a5578063559c8401146101c5578063593d6e821461022757806368613d171461024757600080fd5b80630e9f1a84146100f857806318370d341461011a57806325fa72c01461014d5780632ae3c4c91461016d575b600080fd5b34801561010457600080fd5b50610118610113366004611742565b61037b565b005b34801561012657600080fd5b5061013a610135366004611a16565b6104c4565b6040519081526020015b60405180910390f35b34801561015957600080fd5b50610118610168366004611b5e565b6105a1565b34801561017957600080fd5b5060025461018d906001600160a01b031681565b6040516001600160a01b039091168152602001610144565b3480156101b157600080fd5b5061013a6101c0366004611b97565b6106ec565b3480156101d157600080fd5b506102076101e0366004611bbb565b60046020526000908152604090208054600182015460028301546003909301549192909184565b604080519485526020850193909352918301526060820152608001610144565b34801561023357600080fd5b5061013a610242366004611bd8565b6107c6565b610118610255366004611c0e565b6107f2565b34801561026657600080fd5b5061013a610275366004611b97565b6109e6565b610118610288366004611b5e565b610a14565b34801561029957600080fd5b5060035461018d906001600160a01b031681565b3480156102b957600080fd5b506102cd6102c8366004611c72565b610bc6565b60405160079190910b8152602001610144565b3480156102ec57600080fd5b506102cd6102fb366004611c72565b610bfc565b34801561030c57600080fd5b5061032061031b366004611b97565b610c32565b604051610144929190611ca0565b61011861033c366004611cf0565b610d3c565b34801561034d57600080fd5b5061036161035c366004611c72565b610eeb565b6040805160079390930b8352901515602083015201610144565b60008061038a866000876110e4565b9250509150601660030b82146103f15760405162461bcd60e51b815260206004820152602160248201527f4661696c656420746f206d696e74206e6f6e2d66756e6769626c6520746f6b656044820152603760f91b60648201526084015b60405180910390fd5b60005b815181101561048457846004600084848151811061041457610414611d3b565b602002602001015160070b60070b815260200190815260200160002060000181905550836004600084848151811061044e5761044e611d3b565b602002602001015160070b60070b815260200190815260200160002060010181905550808061047c90611d67565b9150506103f4565b507f696938633d0c2efd9a515bbd9f587fc551d821f11c68f9f230c2f95a36b2eda3816040516104b49190611d82565b60405180910390a1505050505050565b60008060006101676001600160a01b03166318370d3460e01b86866040516024016104f0929190611fe9565b60408051601f198184030181529181526020820180516001600160e01b03166001600160e01b031990941693909317909252905161052e9190612013565b6000604051808303816000865af19150503d806000811461056b576040519150601f19603f3d011682016040523d82523d6000602084013e610570565b606091505b509150915081610581576015610595565b808060200190518101906105959190612041565b60030b95945050505050565b6003546001600160a01b031633146105e75760405162461bcd60e51b81526020600482015260096024820152682737ba1037bbb732b960b91b60448201526064016103e8565b60058160070b13156106475760405162461bcd60e51b8152602060048201526024808201527f4f6e6c792063616e20616c6c6f6361746520757020746f20352052455020746f6044820152636b656e7360e01b60648201526084016103e8565b600254600090610662906001600160a01b03163085856111e2565b9050601681146106b45760405162461bcd60e51b815260206004820152600f60248201527f5472616e73666572204661696c6564000000000000000000000000000000000060448201526064016103e8565b6040518181527f5432df95413df60849770dcaadf1fde7d156e7cf2f311437d154ddcdeaef516f9060200160405180910390a1505050565b6040516001600160a01b03821660248201526000908190819061016790633b3bff0f60e01b906044015b60408051601f198184030181529181526020820180516001600160e01b03166001600160e01b03199094169390931790925290516107549190612013565b6000604051808303816000865af19150503d8060008114610791576040519150601f19603f3d011682016040523d82523d6000602084013e610796565b606091505b5091509150816107a75760156107bb565b808060200190518101906107bb9190612041565b60030b949350505050565b60008060006101676001600160a01b031663593d6e8260e01b86866040516024016104f092919061205c565b604080516001808252818301909252600091816020015b61081161154f565b81526020019060019003908161080957905050905061083360046001306112d9565b8160008151811061084657610846611d3b565b60200260200101819052506108b760408051610120810182526060808252602080830182905260008385018190528284018390526080840181905260a0840181905260c0840181905260e0840183905284519283018552808352908201819052928101929092529061010082015290565b8381526020808201849052604080518082018252601881527f43415220436f6c6c656374696f6e2042793a206b69742d740000000000000000818401526060808501919091523082850181905260016080860152600a60a086015260e08501869052600060c0860181905283519283018452825292810192909252626acfc09082015261010082015260008061094c8361130e565b9092509050601682146109ad5760405162461bcd60e51b815260206004820152602360248201527f4661696c656420746f20637265617465206e6f6e2d66756e6769626c6520746f60448201526235b2b760e91b60648201526084016103e8565b6040516001600160a01b03821681527f7bb17726df1f3adee8aa00ba8e8bc5d6f182af3bbf77604639cb7f008dd3b4ed906020016104b4565b6040516001600160a01b03821660248201526000908190819061016790631f106b4b60e21b90604401610716565b600781900b60009081526004602052604081206001810154600390910154610e1090601890610a4490429061209f565b610a4e91906120b6565b610a5891906120b6565b610a6291906120d8565b9050801580610a7057508034145b610abc5760405162461bcd60e51b815260206004820152601560248201527f496e73756666696369656e74206c61746520666565000000000000000000000060448201526064016103e8565b6000610aca84333086611424565b905060168114610b2a5760405162461bcd60e51b815260206004820152602560248201527f4661696c656420746f207472616e73666572206e6f6e2d66756e6769626c65206044820152643a37b5b2b760d91b60648201526084016103e8565b600783900b600090815260046020526040808220600201549051339282156108fc02929190818181858888f19350505050158015610b6c573d6000803e3d6000fd5b50600783900b60009081526004602052604080822060030191909155517f5432df95413df60849770dcaadf1fde7d156e7cf2f311437d154ddcdeaef516f90610bb89083815260200190565b60405180910390a150505050565b6040516001600160a01b038381166024830152821660448201526000908190819061016790638f8d7f9960e01b906064016104f0565b6040516001600160a01b03838116602483015282166044820152600090819081906101679063af99c63360e01b906064016104f0565b604080516060810182526000808252602080830182905282840182905283516001600160a01b038616602480830191909152855180830390910181526044909101855290810180516001600160e01b0316631ac299b760e31b179052925190928391829161016791610ca49190612013565b6000604051808303816000865af19150503d8060008114610ce1576040519150601f19603f3d011682016040523d82523d6000602084013e610ce6565b606091505b506040805160608101825260008082526020820181905291810191909152919350915082610d1657601581610d2a565b81806020019051810190610d2a91906120f7565b60039190910b97909650945050505050565b600782900b600090815260046020526040812060028101549054610d6b9067ffffffffffffffff8516906120d8565b610d759190612172565b9050803414610dc65760405162461bcd60e51b815260206004820152601060248201527f496e636f727265637420616d6f756e740000000000000000000000000000000060448201526064016103e8565b6000610dd485303387611424565b905060168114610e345760405162461bcd60e51b815260206004820152602560248201527f4661696c656420746f207472616e73666572206e6f6e2d66756e6769626c65206044820152643a37b5b2b760d91b60648201526084016103e8565b610e3f83601861218a565b610e4b90610e1061218a565b610e5f9067ffffffffffffffff1642612172565b600785900b60009081526004602081815260408084206003810195909555939091018054600181018255908352912001805473ffffffffffffffffffffffffffffffffffffffff191633179055517f5432df95413df60849770dcaadf1fde7d156e7cf2f311437d154ddcdeaef516f90610edc9083815260200190565b60405180910390a15050505050565b604080516001600160a01b038481166024830152831660448083019190915282518083039091018152606490910182526020810180516001600160e01b0316633cb0c7fd60e21b179052905160009182918291829161016791610f4d91612013565b6000604051808303816000865af19150503d8060008114610f8a576040519150601f19603f3d011682016040523d82523d6000602084013e610f8f565b606091505b509150915081610fa25760156000610d2a565b80806020019051810190610d2a91906121ba565b600080848061010001516000015163ffffffff166000148015610fe657506101008101516040015163ffffffff16155b15610ffc576101008101516276a7006040909101525b6000806101676001600160a01b03163463c23baeb660e01b8a8a8a604051602401611029939291906121e6565b60408051601f198184030181529181526020820180516001600160e01b03166001600160e01b03199094169390931790925290516110679190612013565b60006040518083038185875af1925050503d80600081146110a4576040519150601f19603f3d011682016040523d82523d6000602084013e6110a9565b606091505b5091509150816110bc57601560006110d0565b808060200190518101906110d0919061221f565b60039190910b999098509650505050505050565b60008060606000806101676001600160a01b031663278e0b8860e01b8989896040516024016111159392919061224b565b60408051601f198184030181529181526020820180516001600160e01b03166001600160e01b03199094169390931790925290516111539190612013565b6000604051808303816000865af19150503d8060008114611190576040519150601f19603f3d011682016040523d82523d6000602084013e611195565b606091505b5091509150816111b85760408051600080825260208201909252601591906111cc565b808060200190518101906111cc91906122cf565b60039290920b9a90995090975095505050505050565b6040516001600160a01b038581166024830152848116604483015283166064820152600782900b6084820152600090819081906101679063eca3691760e01b9060a4015b60408051601f198184030181529181526020820180516001600160e01b03166001600160e01b03199094169390931790925290516112649190612013565b6000604051808303816000865af19150503d80600081146112a1576040519150601f19603f3d011682016040523d82523d6000602084013e6112a6565b606091505b5091509150816112b75760156112cb565b808060200190518101906112cb9190612041565b60030b979650505050505050565b6112e161154f565b60405180604001604052806112f58661146c565b815260200161130485856114ab565b9052949350505050565b600080828061010001516000015163ffffffff16600014801561133e57506101008101516040015163ffffffff16155b15611354576101008101516276a7006040909101525b6000806101676001600160a01b031634639c89bb3560e01b8860405160240161137d919061238f565b60408051601f198184030181529181526020820180516001600160e01b03166001600160e01b03199094169390931790925290516113bb9190612013565b60006040518083038185875af1925050503d80600081146113f8576040519150601f19603f3d011682016040523d82523d6000602084013e6113fd565b606091505b5091509150816114105760156000610d2a565b80806020019051810190610d2a919061221f565b6040516001600160a01b038581166024830152848116604483015283166064820152600782900b60848201526000908190819061016790635cfc901160e01b9060a401611226565b600060016000836006811115611484576114846123a2565b6006811115611495576114956123a2565b8152602001908152602001600020549050919050565b6114f16040518060a0016040528060001515815260200160006001600160a01b03168152602001606081526020016060815260200160006001600160a01b031681525090565b6001836004811115611505576115056123a2565b141561151f576001600160a01b0382166020820152611549565b6004836004811115611533576115336123a2565b1415611549576001600160a01b03821660808201525b92915050565b6040518060400160405280600081526020016115a76040518060a0016040528060001515815260200160006001600160a01b03168152602001606081526020016060815260200160006001600160a01b031681525090565b905290565b6001600160a01b03811681146115c157600080fd5b50565b80356115cf816115ac565b919050565b634e487b7160e01b600052604160045260246000fd5b6040805190810167ffffffffffffffff8111828210171561160d5761160d6115d4565b60405290565b60405160a0810167ffffffffffffffff8111828210171561160d5761160d6115d4565b6040516060810167ffffffffffffffff8111828210171561160d5761160d6115d4565b604051610120810167ffffffffffffffff8111828210171561160d5761160d6115d4565b604051601f8201601f1916810167ffffffffffffffff811182821017156116a6576116a66115d4565b604052919050565b600067ffffffffffffffff8211156116c8576116c86115d4565b5060051b60200190565b600082601f8301126116e357600080fd5b813567ffffffffffffffff8111156116fd576116fd6115d4565b611710601f8201601f191660200161167d565b81815284602083860101111561172557600080fd5b816020850160208301376000918101602001919091529392505050565b6000806000806080858703121561175857600080fd5b8435611763816115ac565b935060208581013567ffffffffffffffff8082111561178157600080fd5b818801915088601f83011261179557600080fd5b81356117a86117a3826116ae565b61167d565b81815260059190911b8301840190848101908b8311156117c757600080fd5b8585015b838110156117ff578035858111156117e35760008081fd5b6117f18e89838a01016116d2565b8452509186019186016117cb565b50989b989a505050506040870135966060013595945050505050565b80151581146115c157600080fd5b80356115cf8161181b565b8060070b81146115c157600080fd5b80356115cf81611834565b600082601f83011261185f57600080fd5b8135602061186f6117a3836116ae565b82815260059290921b8401810191818101908684111561188e57600080fd5b8286015b848110156119a457803567ffffffffffffffff808211156118b257600080fd5b908801906040601f19838c0381018213156118cc57600080fd5b6118d46115ea565b88850135815282850135848111156118eb57600080fd5b949094019360a0858e03830112156119035760008081fd5b61190b611613565b91508885013561191a8161181b565b825284830135611929816115ac565b828a0152606085810135858111156119415760008081fd5b61194f8f8c838a01016116d2565b858501525060809350838601358581111561196a5760008081fd5b6119788f8c838a01016116d2565b82850152505061198a60a086016115c4565b928201929092528188015285525050918301918301611892565b509695505050505050565b63ffffffff811681146115c157600080fd5b6000606082840312156119d357600080fd5b6119db611636565b905081356119e8816119af565b815260208201356119f8816115ac565b60208201526040820135611a0b816119af565b604082015292915050565b60008060408385031215611a2957600080fd5b8235611a34816115ac565b9150602083013567ffffffffffffffff80821115611a5157600080fd5b908401906101608287031215611a6657600080fd5b611a6e611659565b823582811115611a7d57600080fd5b611a89888286016116d2565b825250602083013582811115611a9e57600080fd5b611aaa888286016116d2565b602083015250611abc604084016115c4565b6040820152606083013582811115611ad357600080fd5b611adf888286016116d2565b606083015250611af160808401611829565b6080820152611b0260a08401611843565b60a0820152611b1360c08401611829565b60c082015260e083013582811115611b2a57600080fd5b611b368882860161184e565b60e0830152506101009150611b4d878385016119c1565b828201528093505050509250929050565b60008060408385031215611b7157600080fd5b8235611b7c816115ac565b91506020830135611b8c81611834565b809150509250929050565b600060208284031215611ba957600080fd5b8135611bb4816115ac565b9392505050565b600060208284031215611bcd57600080fd5b8135611bb481611834565b60008060808385031215611beb57600080fd5b8235611bf6816115ac565b9150611c0584602085016119c1565b90509250929050565b60008060408385031215611c2157600080fd5b823567ffffffffffffffff80821115611c3957600080fd5b611c45868387016116d2565b93506020850135915080821115611c5b57600080fd5b50611c68858286016116d2565b9150509250929050565b60008060408385031215611c8557600080fd5b8235611c90816115ac565b91506020830135611b8c816115ac565b82815260808101611bb46020830184805163ffffffff90811683526020808301516001600160a01b03169084015260409182015116910152565b67ffffffffffffffff811681146115c157600080fd5b600080600060608486031215611d0557600080fd5b8335611d10816115ac565b92506020840135611d2081611834565b91506040840135611d3081611cda565b809150509250925092565b634e487b7160e01b600052603260045260246000fd5b634e487b7160e01b600052601160045260246000fd5b6000600019821415611d7b57611d7b611d51565b5060010190565b6020808252825182820181905260009190848201906040850190845b81811015611dbd57835160070b83529284019291840191600101611d9e565b50909695505050505050565b60005b83811015611de4578181015183820152602001611dcc565b83811115611df3576000848401525b50505050565b60008151808452611e11816020860160208601611dc9565b601f01601f19169290920160200192915050565b600081518084526020808501808196508360051b8101915082860160005b85811015611edc5782840389528151604081518652868201519150808787015281511515818701528682015160606001600160a01b03808316828a015283850151935060a09250608083818b0152611e9e60e08b0186611df9565b928601518a8403603f1901858c0152929450611eba8584611df9565b9501511660c09890980197909752505098850198935090840190600101611e43565b5091979650505050505050565b60006101608251818552611eff82860182611df9565b91505060208301518482036020860152611f198282611df9565b9150506040830151611f3660408601826001600160a01b03169052565b5060608301518482036060860152611f4e8282611df9565b9150506080830151611f64608086018215159052565b5060a0830151611f7960a086018260070b9052565b5060c0830151611f8d60c086018215159052565b5060e083015184820360e0860152611fa58282611e25565b61010085810151805163ffffffff9081168984015260208201516001600160a01b03166101208a015260408201511661014089015291935091505090949350505050565b6001600160a01b038316815260406020820152600061200b6040830184611ee9565b949350505050565b60008251612025818460208701611dc9565b9190910192915050565b8051600381900b81146115cf57600080fd5b60006020828403121561205357600080fd5b611bb48261202f565b6001600160a01b038316815260808101611bb46020830184805163ffffffff90811683526020808301516001600160a01b03169084015260409182015116910152565b6000828210156120b1576120b1611d51565b500390565b6000826120d357634e487b7160e01b600052601260045260246000fd5b500490565b60008160001904831182151516156120f2576120f2611d51565b500290565b600080828403608081121561210b57600080fd5b6121148461202f565b92506060601f198201121561212857600080fd5b50612131611636565b602084015161213f816119af565b8152604084015161214f816115ac565b60208201526060840151612162816119af565b6040820152919491935090915050565b6000821982111561218557612185611d51565b500190565b600067ffffffffffffffff808316818516818304811182151516156121b1576121b1611d51565b02949350505050565b600080604083850312156121cd57600080fd5b6121d68361202f565b91506020830151611b8c8161181b565b6060815260006121f96060830186611ee9565b905067ffffffffffffffff8416602083015263ffffffff83166040830152949350505050565b6000806040838503121561223257600080fd5b61223b8361202f565b91506020830151611b8c816115ac565b6000606082016001600160a01b0386168352602067ffffffffffffffff8616818501526060604085015281855180845260808601915060808160051b870101935082870160005b828110156122c057607f198887030184526122ae868351611df9565b95509284019290840190600101612292565b50939998505050505050505050565b6000806000606084860312156122e457600080fd5b6122ed8461202f565b92506020808501516122fe81611cda565b604086015190935067ffffffffffffffff81111561231b57600080fd5b8501601f8101871361232c57600080fd5b805161233a6117a3826116ae565b81815260059190911b8201830190838101908983111561235957600080fd5b928401925b8284101561238057835161237181611834565b8252928401929084019061235e565b80955050505050509250925092565b602081526000611bb46020830184611ee9565b634e487b7160e01b600052602160045260246000fdfea264697066735822122066de7f8a90a081e9b7acfa2ae6218243cf3c61cf6173d4c90bd67e8ec0c72cfa64736f6c63430008090033",
	"linkReferences": {},
	"deployedLinkReferences": {}
}