{
	"_format": "hh-sol-artifact-1",
	"contractName": "MerchantBackend",
	"sourceName": "contracts/MerchantBackend.sol",
	"abi": [
		{
			"inputs": [],
			"stateMutability": "payable",
			"type": "constructor"
		},
		{
			"anonymous": false,
			"inputs": [
				{
					"indexed": false,
					"internalType": "address",
					"name": "tokenAddress",
					"type": "address"
				}
			],
			"name": "CreatedToken",
			"type": "event"
		},
		{
			"anonymous": false,
			"inputs": [
				{
					"indexed": false,
					"internalType": "int64[]",
					"name": "serialNumbers",
					"type": "int64[]"
				}
			],
			"name": "MintedToken",
			"type": "event"
		},
		{
			"anonymous": false,
			"inputs": [
				{
					"indexed": false,
					"internalType": "int256",
					"name": "response",
					"type": "int256"
				}
			],
			"name": "Response",
			"type": "event"
		},
		{
			"anonymous": false,
			"inputs": [
				{
					"indexed": false,
					"internalType": "uint256",
					"name": "payment",
					"type": "uint256"
				},
				{
					"indexed": false,
					"internalType": "uint256",
					"name": "value",
					"type": "uint256"
				}
			],
			"name": "TotalPayment",
			"type": "event"
		},
		{
			"inputs": [
				{
					"internalType": "address",
					"name": "nftAddress",
					"type": "address"
				},
				{
					"internalType": "int64",
					"name": "serial",
					"type": "int64"
				},
				{
					"internalType": "uint256",
					"name": "duration",
					"type": "uint256"
				}
			],
			"name": "borrowing",
			"outputs": [],
			"stateMutability": "payable",
			"type": "function"
		},
		{
			"inputs": [
				{
					"internalType": "int64",
					"name": "",
					"type": "int64"
				}
			],
			"name": "cars",
			"outputs": [
				{
					"internalType": "uint256",
					"name": "dailyRate",
					"type": "uint256"
				},
				{
					"internalType": "uint256",
					"name": "deposit",
					"type": "uint256"
				},
				{
					"internalType": "uint256",
					"name": "returnBy",
					"type": "uint256"
				}
			],
			"stateMutability": "view",
			"type": "function"
		},
		{
			"inputs": [
				{
					"internalType": "string",
					"name": "name",
					"type": "string"
				},
				{
					"internalType": "string",
					"name": "symbol",
					"type": "string"
				}
			],
			"name": "createNFT",
			"outputs": [],
			"stateMutability": "payable",
			"type": "function"
		},
		{
			"inputs": [],
			"name": "ftAddress",
			"outputs": [
				{
					"internalType": "address",
					"name": "",
					"type": "address"
				}
			],
			"stateMutability": "view",
			"type": "function"
		},
		{
			"inputs": [
				{
					"internalType": "address",
					"name": "token",
					"type": "address"
				}
			],
			"name": "getTokenExpiryInfo",
			"outputs": [
				{
					"internalType": "int256",
					"name": "responseCode",
					"type": "int256"
				},
				{
					"components": [
						{
							"internalType": "uint32",
							"name": "second",
							"type": "uint32"
						},
						{
							"internalType": "address",
							"name": "autoRenewAccount",
							"type": "address"
						},
						{
							"internalType": "uint32",
							"name": "autoRenewPeriod",
							"type": "uint32"
						}
					],
					"internalType": "struct IHederaTokenService.Expiry",
					"name": "expiryInfo",
					"type": "tuple"
				}
			],
			"stateMutability": "nonpayable",
			"type": "function"
		},
		{
			"inputs": [
				{
					"internalType": "address",
					"name": "token",
					"type": "address"
				},
				{
					"internalType": "address",
					"name": "account",
					"type": "address"
				}
			],
			"name": "grantTokenKyc",
			"outputs": [
				{
					"internalType": "int64",
					"name": "responseCode",
					"type": "int64"
				}
			],
			"stateMutability": "nonpayable",
			"type": "function"
		},
		{
			"inputs": [
				{
					"internalType": "address",
					"name": "token",
					"type": "address"
				},
				{
					"internalType": "address",
					"name": "account",
					"type": "address"
				}
			],
			"name": "isKyc",
			"outputs": [
				{
					"internalType": "int64",
					"name": "responseCode",
					"type": "int64"
				},
				{
					"internalType": "bool",
					"name": "kycGranted",
					"type": "bool"
				}
			],
			"stateMutability": "nonpayable",
			"type": "function"
		},
		{
			"inputs": [
				{
					"internalType": "address",
					"name": "token",
					"type": "address"
				},
				{
					"internalType": "bytes[]",
					"name": "metadata",
					"type": "bytes[]"
				},
				{
					"internalType": "uint256",
					"name": "_deposit",
					"type": "uint256"
				},
				{
					"internalType": "uint256",
					"name": "_dailyRate",
					"type": "uint256"
				}
			],
			"name": "mintNFT",
			"outputs": [],
			"stateMutability": "nonpayable",
			"type": "function"
		},
		{
			"inputs": [],
			"name": "owner",
			"outputs": [
				{
					"internalType": "address",
					"name": "",
					"type": "address"
				}
			],
			"stateMutability": "view",
			"type": "function"
		},
		{
			"inputs": [
				{
					"internalType": "address",
					"name": "token",
					"type": "address"
				}
			],
			"name": "pauseToken",
			"outputs": [
				{
					"internalType": "int256",
					"name": "responseCode",
					"type": "int256"
				}
			],
			"stateMutability": "nonpayable",
			"type": "function"
		},
		{
			"inputs": [
				{
					"internalType": "address",
					"name": "nftAddress",
					"type": "address"
				},
				{
					"internalType": "int64",
					"name": "serial",
					"type": "int64"
				}
			],
			"name": "returning",
			"outputs": [],
			"stateMutability": "nonpayable",
			"type": "function"
		},
		{
			"inputs": [
				{
					"internalType": "address",
					"name": "token",
					"type": "address"
				},
				{
					"internalType": "address",
					"name": "account",
					"type": "address"
				}
			],
			"name": "revokeTokenKyc",
			"outputs": [
				{
					"internalType": "int64",
					"name": "responseCode",
					"type": "int64"
				}
			],
			"stateMutability": "nonpayable",
			"type": "function"
		},
		{
			"inputs": [
				{
					"internalType": "address",
					"name": "receiver",
					"type": "address"
				},
				{
					"internalType": "int64",
					"name": "amount",
					"type": "int64"
				}
			],
			"name": "scoring",
			"outputs": [],
			"stateMutability": "nonpayable",
			"type": "function"
		},
		{
			"inputs": [
				{
					"internalType": "address",
					"name": "token",
					"type": "address"
				}
			],
			"name": "unpauseToken",
			"outputs": [
				{
					"internalType": "int256",
					"name": "responseCode",
					"type": "int256"
				}
			],
			"stateMutability": "nonpayable",
			"type": "function"
		},
		{
			"inputs": [
				{
					"internalType": "address",
					"name": "token",
					"type": "address"
				},
				{
					"components": [
						{
							"internalType": "uint32",
							"name": "second",
							"type": "uint32"
						},
						{
							"internalType": "address",
							"name": "autoRenewAccount",
							"type": "address"
						},
						{
							"internalType": "uint32",
							"name": "autoRenewPeriod",
							"type": "uint32"
						}
					],
					"internalType": "struct IHederaTokenService.Expiry",
					"name": "expiryInfo",
					"type": "tuple"
				}
			],
			"name": "updateTokenExpiryInfo",
			"outputs": [
				{
					"internalType": "int256",
					"name": "responseCode",
					"type": "int256"
				}
			],
			"stateMutability": "nonpayable",
			"type": "function"
		},
		{
			"inputs": [
				{
					"internalType": "address",
					"name": "token",
					"type": "address"
				},
				{
					"components": [
						{
							"internalType": "string",
							"name": "name",
							"type": "string"
						},
						{
							"internalType": "string",
							"name": "symbol",
							"type": "string"
						},
						{
							"internalType": "address",
							"name": "treasury",
							"type": "address"
						},
						{
							"internalType": "string",
							"name": "memo",
							"type": "string"
						},
						{
							"internalType": "bool",
							"name": "tokenSupplyType",
							"type": "bool"
						},
						{
							"internalType": "int64",
							"name": "maxSupply",
							"type": "int64"
						},
						{
							"internalType": "bool",
							"name": "freezeDefault",
							"type": "bool"
						},
						{
							"components": [
								{
									"internalType": "uint256",
									"name": "keyType",
									"type": "uint256"
								},
								{
									"components": [
										{
											"internalType": "bool",
											"name": "inheritAccountKey",
											"type": "bool"
										},
										{
											"internalType": "address",
											"name": "contractId",
											"type": "address"
										},
										{
											"internalType": "bytes",
											"name": "ed25519",
											"type": "bytes"
										},
										{
											"internalType": "bytes",
											"name": "ECDSA_secp256k1",
											"type": "bytes"
										},
										{
											"internalType": "address",
											"name": "delegatableContractId",
											"type": "address"
										}
									],
									"internalType": "struct IHederaTokenService.KeyValue",
									"name": "key",
									"type": "tuple"
								}
							],
							"internalType": "struct IHederaTokenService.TokenKey[]",
							"name": "tokenKeys",
							"type": "tuple[]"
						},
						{
							"components": [
								{
									"internalType": "uint32",
									"name": "second",
									"type": "uint32"
								},
								{
									"internalType": "address",
									"name": "autoRenewAccount",
									"type": "address"
								},
								{
									"internalType": "uint32",
									"name": "autoRenewPeriod",
									"type": "uint32"
								}
							],
							"internalType": "struct IHederaTokenService.Expiry",
							"name": "expiry",
							"type": "tuple"
						}
					],
					"internalType": "struct IHederaTokenService.HederaToken",
					"name": "tokenInfo",
					"type": "tuple"
				}
			],
			"name": "updateTokenInfo",
			"outputs": [
				{
					"internalType": "int256",
					"name": "responseCode",
					"type": "int256"
				}
			],
			"stateMutability": "nonpayable",
			"type": "function"
		}
	],
	"bytecode": "0x600160208181527fa6eef7e35abe7026729641147f7915573c7e97b47efa546f5f6e3230263bcb499190915560027fcc69885fda6bcc1a4ace058b4a62bf5e179ea78fd58a1ccd71c22cc9b688792f5560047fd9d16d34ffb15ba3a3d852f0d403e2ce1d691fb54de27ac87cd2f993f3ec330f5560087f7dfe757ecd65cbd7922a9c0161e935dd7fdbcc0e999689c7d31633896b1fc60b5560107fedc95719e9a3b28dd8e80877cb5880a9be7de1a13fc8b05e7999683b6b567643557fe2689cd4a84e23ad2f564004f1c9013e9589d260bde6380aba3ca7e09e4df40c8190556006600090815260407f8f331abe73332f95a25873e8b430885974c0409691f89d643119a11623a7924a8190556101008290526101208290526101408290526060610160526101a08290526101c08290526101e082905260116102009081527052657075746174696f6e20546f6b656e7360781b61022052608090815260036102409081526205245560ec1b6102605260a05260146102809081527f52455020546f6b656e732042793a206b69742d740000000000000000000000006102a05260e0523060c08190526103209092526102c08381526102e092909252626acfc06103005261018091909152918190620001e99084906103e890849062000f0f62000262821b17901c565b909250905060168214620001fc57600080fd5b600280546001600160a01b0383166001600160a01b0319918216811790925560038054909116331790556040519081527f7bb17726df1f3adee8aa00ba8e8bc5d6f182af3bbf77604639cb7f008dd3b4ed9060200160405180910390a150505062000678565b600080848061010001516000015163ffffffff1660001480156200029357506101008101516040015163ffffffff16155b15620002aa576101008101516276a7006040909101525b6000806101676001600160a01b03163463c23baeb660e01b8a8a8a604051602401620002d993929190620004ce565b60408051601f198184030181529181526020820180516001600160e01b03166001600160e01b03199094169390931790925290516200031991906200060b565b60006040518083038185875af1925050503d806000811462000358576040519150601f19603f3d011682016040523d82523d6000602084013e6200035d565b606091505b50915091508162000372576015600062000388565b8080602001905181019062000388919062000629565b60039190910b999098509650505050505050565b60005b83811015620003b95781810151838201526020016200039f565b83811115620003c9576000848401525b50505050565b60008151808452620003e98160208601602086016200039c565b601f01601f19169290920160200192915050565b600082825180855260208086019550808260051b84010181860160005b84811015620004c157858303601f1901895281518051845284015160408585018190528151151581860152818601516001600160a01b039081166060808801919091529183015160a060808089018290529193909290916200048060e08a0186620003cf565b92860151898403603f1901858b01529294506200049e8584620003cf565b9501511660c097909701969096525050988401989250908301906001016200041a565b5090979650505050505050565b6060815260008451610160806060850152620004ef6101c0850183620003cf565b91506020870151605f19808685030160808701526200050f8483620003cf565b9350604089015191506200052e60a08701836001600160a01b03169052565b60608901519150808685030160c08701526200054b8483620003cf565b9350608089015191506200056360e087018315159052565b60a089015191506101006200057c8188018460070b9052565b60c08a0151151561012088015260e08a015187860383016101408901529250620005a78584620003fd565b9450808a015192505050620005e482860182805163ffffffff90811683526020808301516001600160a01b03169084015260409182015116910152565b50506001600160401b0385166020840152905063ffffffff83166040830152949350505050565b600082516200061f8184602087016200039c565b9190910192915050565b600080604083850312156200063d57600080fd5b82518060030b81146200064f57600080fd5b60208401519092506001600160a01b03811681146200066d57600080fd5b809150509250929050565b6122e780620006886000396000f3fe6080604052600436106100f35760003560e01c80637c41ad2c1161008a5780639b740a0f116100595780639b740a0f146102e2578063af99c633146102f5578063d614cdb814610315578063f2c31ff41461034357600080fd5b80637c41ad2c1461024f57806386b3f8661461026f5780638da5cb5b1461028f5780638f8d7f99146102af57600080fd5b80633b3bff0f116100c65780633b3bff0f146101a5578063559c8401146101c5578063593d6e821461021c57806368613d171461023c57600080fd5b80630e9f1a84146100f857806318370d341461011a57806325fa72c01461014d5780632ae3c4c91461016d575b600080fd5b34801561010457600080fd5b5061011861011336600461169b565b61037d565b005b34801561012657600080fd5b5061013a61013536600461196f565b6104c0565b6040519081526020015b60405180910390f35b34801561015957600080fd5b50610118610168366004611ab7565b61059d565b34801561017957600080fd5b5060025461018d906001600160a01b031681565b6040516001600160a01b039091168152602001610144565b3480156101b157600080fd5b5061013a6101c0366004611af0565b6106e9565b3480156101d157600080fd5b506102016101e0366004611b14565b60046020526000908152604090208054600182015460029092015490919083565b60408051938452602084019290925290820152606001610144565b34801561022857600080fd5b5061013a610237366004611b31565b6107c3565b61011861024a366004611b67565b6107ef565b34801561025b57600080fd5b5061013a61026a366004611af0565b6109e3565b34801561027b57600080fd5b5061011861028a366004611ab7565b610a11565b34801561029b57600080fd5b5060035461018d906001600160a01b031681565b3480156102bb57600080fd5b506102cf6102ca366004611bcb565b610b20565b60405160079190910b8152602001610144565b6101186102f0366004611bf9565b610b56565b34801561030157600080fd5b506102cf610310366004611bcb565b610d04565b34801561032157600080fd5b50610335610330366004611af0565b610d3a565b604051610144929190611c3a565b34801561034f57600080fd5b5061036361035e366004611bcb565b610e44565b6040805160079390930b8352901515602083015201610144565b60008061038c8660008761103d565b9250509150601660030b82146103f35760405162461bcd60e51b815260206004820152602160248201527f4661696c656420746f206d696e74206e6f6e2d66756e6769626c6520746f6b656044820152603760f91b60648201526084015b60405180910390fd5b60005b815181101561048057846004600084848151811061041657610416611c74565b602002602001015160070b60070b815260200190815260200160002060010181905550836004600084848151811061045057610450611c74565b60209081029190910181015160070b8252810191909152604001600020558061047881611ca0565b9150506103f6565b507f696938633d0c2efd9a515bbd9f587fc551d821f11c68f9f230c2f95a36b2eda3816040516104b09190611cbb565b60405180910390a1505050505050565b60008060006101676001600160a01b03166318370d3460e01b86866040516024016104ec929190611f22565b60408051601f198184030181529181526020820180516001600160e01b03166001600160e01b031990941693909317909252905161052a9190611f4c565b6000604051808303816000865af19150503d8060008114610567576040519150601f19603f3d011682016040523d82523d6000602084013e61056c565b606091505b50915091508161057d576015610591565b808060200190518101906105919190611f7a565b60030b95945050505050565b6003546001600160a01b031633146105e35760405162461bcd60e51b81526020600482015260096024820152682737ba1037bbb732b960b91b60448201526064016103ea565b60058160070b13156106435760405162461bcd60e51b8152602060048201526024808201527f4f6e6c792063616e20616c6c6f6361746520757020746f20352052455020746f6044820152636b656e7360e01b60648201526084016103ea565b60025460009061065e906001600160a01b031630858561113b565b9050601681146106b05760405162461bcd60e51b815260206004820152600f60248201527f5472616e73666572204661696c6564000000000000000000000000000000000060448201526064016103ea565b6040518181527f5432df95413df60849770dcaadf1fde7d156e7cf2f311437d154ddcdeaef516f906020015b60405180910390a1505050565b6040516001600160a01b03821660248201526000908190819061016790633b3bff0f60e01b906044015b60408051601f198184030181529181526020820180516001600160e01b03166001600160e01b03199094169390931790925290516107519190611f4c565b6000604051808303816000865af19150503d806000811461078e576040519150601f19603f3d011682016040523d82523d6000602084013e610793565b606091505b5091509150816107a45760156107b8565b808060200190518101906107b89190611f7a565b60030b949350505050565b60008060006101676001600160a01b031663593d6e8260e01b86866040516024016104ec929190611f95565b604080516001808252818301909252600091816020015b61080e6114a8565b8152602001906001900390816108065790505090506108306004600130611232565b8160008151811061084357610843611c74565b60200260200101819052506108b460408051610120810182526060808252602080830182905260008385018190528284018390526080840181905260a0840181905260c0840181905260e0840183905284519283018552808352908201819052928101929092529061010082015290565b8381526020808201849052604080518082018252601881527f43415220436f6c6c656374696f6e2042793a206b69742d740000000000000000818401526060808501919091523082850181905260016080860152600a60a086015260e08501869052600060c0860181905283519283018452825292810192909252626acfc09082015261010082015260008061094983611267565b9092509050601682146109aa5760405162461bcd60e51b815260206004820152602360248201527f4661696c656420746f20637265617465206e6f6e2d66756e6769626c6520746f60448201526235b2b760e91b60648201526084016103ea565b6040516001600160a01b03821681527f7bb17726df1f3adee8aa00ba8e8bc5d6f182af3bbf77604639cb7f008dd3b4ed906020016104b0565b6040516001600160a01b03821660248201526000908190819061016790631f106b4b60e21b90604401610713565b6000610a1f8333308561137d565b905060168114610a7f5760405162461bcd60e51b815260206004820152602560248201527f4661696c656420746f207472616e73666572206e6f6e2d66756e6769626c65206044820152643a37b5b2b760d91b60648201526084016103ea565b600782900b60009081526004602052604090206001015433906108fc90610aac906402540be40090611fd8565b6040518115909202916000818181858888f19350505050158015610ad4573d6000803e3d6000fd5b50600782900b60009081526004602052604080822060020191909155517f5432df95413df60849770dcaadf1fde7d156e7cf2f311437d154ddcdeaef516f906106dc9083815260200190565b6040516001600160a01b038381166024830152821660448201526000908190819061016790638f8d7f9960e01b906064016104ec565b600782900b6000908152600460205260408120600181015490546402540be4009190610b83908590611ffa565b610b8d9190612019565b610b979190611fd8565b604080518281523460208201529192507f0e4ff92fcbe2d4ac31dbf628fbc45f329385f8f75864457154795438b9fb6ebc910160405180910390a1803414610c215760405162461bcd60e51b815260206004820152601060248201527f496e636f727265637420616d6f756e740000000000000000000000000000000060448201526064016103ea565b6000610c2f8530338761137d565b905060168114610c8f5760405162461bcd60e51b815260206004820152602560248201527f4661696c656420746f207472616e73666572206e6f6e2d66756e6769626c65206044820152643a37b5b2b760d91b60648201526084016103ea565b610c9a836018611ffa565b610ca690610e10611ffa565b610cb09042612019565b600785900b60009081526004602090815260409182902060020192909255518281527f5432df95413df60849770dcaadf1fde7d156e7cf2f311437d154ddcdeaef516f910160405180910390a15050505050565b6040516001600160a01b03838116602483015282166044820152600090819081906101679063af99c63360e01b906064016104ec565b604080516060810182526000808252602080830182905282840182905283516001600160a01b038616602480830191909152855180830390910181526044909101855290810180516001600160e01b0316631ac299b760e31b179052925190928391829161016791610dac9190611f4c565b6000604051808303816000865af19150503d8060008114610de9576040519150601f19603f3d011682016040523d82523d6000602084013e610dee565b606091505b506040805160608101825260008082526020820181905291810191909152919350915082610e1e57601581610e32565b81806020019051810190610e329190612031565b60039190910b97909650945050505050565b604080516001600160a01b038481166024830152831660448083019190915282518083039091018152606490910182526020810180516001600160e01b0316633cb0c7fd60e21b179052905160009182918291829161016791610ea691611f4c565b6000604051808303816000865af19150503d8060008114610ee3576040519150601f19603f3d011682016040523d82523d6000602084013e610ee8565b606091505b509150915081610efb5760156000610e32565b80806020019051810190610e3291906120ac565b600080848061010001516000015163ffffffff166000148015610f3f57506101008101516040015163ffffffff16155b15610f55576101008101516276a7006040909101525b6000806101676001600160a01b03163463c23baeb660e01b8a8a8a604051602401610f82939291906120d8565b60408051601f198184030181529181526020820180516001600160e01b03166001600160e01b0319909416939093179092529051610fc09190611f4c565b60006040518083038185875af1925050503d8060008114610ffd576040519150601f19603f3d011682016040523d82523d6000602084013e611002565b606091505b5091509150816110155760156000611029565b808060200190518101906110299190612111565b60039190910b999098509650505050505050565b60008060606000806101676001600160a01b031663278e0b8860e01b89898960405160240161106e9392919061213d565b60408051601f198184030181529181526020820180516001600160e01b03166001600160e01b03199094169390931790925290516110ac9190611f4c565b6000604051808303816000865af19150503d80600081146110e9576040519150601f19603f3d011682016040523d82523d6000602084013e6110ee565b606091505b509150915081611111576040805160008082526020820190925260159190611125565b8080602001905181019061112591906121c1565b60039290920b9a90995090975095505050505050565b6040516001600160a01b038581166024830152848116604483015283166064820152600782900b6084820152600090819081906101679063eca3691760e01b9060a4015b60408051601f198184030181529181526020820180516001600160e01b03166001600160e01b03199094169390931790925290516111bd9190611f4c565b6000604051808303816000865af19150503d80600081146111fa576040519150601f19603f3d011682016040523d82523d6000602084013e6111ff565b606091505b509150915081611210576015611224565b808060200190518101906112249190611f7a565b60030b979650505050505050565b61123a6114a8565b604051806040016040528061124e866113c5565b815260200161125d8585611404565b9052949350505050565b600080828061010001516000015163ffffffff16600014801561129757506101008101516040015163ffffffff16155b156112ad576101008101516276a7006040909101525b6000806101676001600160a01b031634639c89bb3560e01b886040516024016112d69190612288565b60408051601f198184030181529181526020820180516001600160e01b03166001600160e01b03199094169390931790925290516113149190611f4c565b60006040518083038185875af1925050503d8060008114611351576040519150601f19603f3d011682016040523d82523d6000602084013e611356565b606091505b5091509150816113695760156000610e32565b80806020019051810190610e329190612111565b6040516001600160a01b038581166024830152848116604483015283166064820152600782900b60848201526000908190819061016790635cfc901160e01b9060a40161117f565b6000600160008360068111156113dd576113dd61229b565b60068111156113ee576113ee61229b565b8152602001908152602001600020549050919050565b61144a6040518060a0016040528060001515815260200160006001600160a01b03168152602001606081526020016060815260200160006001600160a01b031681525090565b600183600481111561145e5761145e61229b565b1415611478576001600160a01b03821660208201526114a2565b600483600481111561148c5761148c61229b565b14156114a2576001600160a01b03821660808201525b92915050565b6040518060400160405280600081526020016115006040518060a0016040528060001515815260200160006001600160a01b03168152602001606081526020016060815260200160006001600160a01b031681525090565b905290565b6001600160a01b038116811461151a57600080fd5b50565b803561152881611505565b919050565b634e487b7160e01b600052604160045260246000fd5b6040805190810167ffffffffffffffff811182821017156115665761156661152d565b60405290565b60405160a0810167ffffffffffffffff811182821017156115665761156661152d565b6040516060810167ffffffffffffffff811182821017156115665761156661152d565b604051610120810167ffffffffffffffff811182821017156115665761156661152d565b604051601f8201601f1916810167ffffffffffffffff811182821017156115ff576115ff61152d565b604052919050565b600067ffffffffffffffff8211156116215761162161152d565b5060051b60200190565b600082601f83011261163c57600080fd5b813567ffffffffffffffff8111156116565761165661152d565b611669601f8201601f19166020016115d6565b81815284602083860101111561167e57600080fd5b816020850160208301376000918101602001919091529392505050565b600080600080608085870312156116b157600080fd5b84356116bc81611505565b935060208581013567ffffffffffffffff808211156116da57600080fd5b818801915088601f8301126116ee57600080fd5b81356117016116fc82611607565b6115d6565b81815260059190911b8301840190848101908b83111561172057600080fd5b8585015b838110156117585780358581111561173c5760008081fd5b61174a8e89838a010161162b565b845250918601918601611724565b50989b989a505050506040870135966060013595945050505050565b801515811461151a57600080fd5b803561152881611774565b8060070b811461151a57600080fd5b80356115288161178d565b600082601f8301126117b857600080fd5b813560206117c86116fc83611607565b82815260059290921b840181019181810190868411156117e757600080fd5b8286015b848110156118fd57803567ffffffffffffffff8082111561180b57600080fd5b908801906040601f19838c03810182131561182557600080fd5b61182d611543565b888501358152828501358481111561184457600080fd5b949094019360a0858e038301121561185c5760008081fd5b61186461156c565b91508885013561187381611774565b82528483013561188281611505565b828a01526060858101358581111561189a5760008081fd5b6118a88f8c838a010161162b565b85850152506080935083860135858111156118c35760008081fd5b6118d18f8c838a010161162b565b8285015250506118e360a0860161151d565b9282019290925281880152855250509183019183016117eb565b509695505050505050565b63ffffffff8116811461151a57600080fd5b60006060828403121561192c57600080fd5b61193461158f565b9050813561194181611908565b8152602082013561195181611505565b6020820152604082013561196481611908565b604082015292915050565b6000806040838503121561198257600080fd5b823561198d81611505565b9150602083013567ffffffffffffffff808211156119aa57600080fd5b9084019061016082870312156119bf57600080fd5b6119c76115b2565b8235828111156119d657600080fd5b6119e28882860161162b565b8252506020830135828111156119f757600080fd5b611a038882860161162b565b602083015250611a156040840161151d565b6040820152606083013582811115611a2c57600080fd5b611a388882860161162b565b606083015250611a4a60808401611782565b6080820152611a5b60a0840161179c565b60a0820152611a6c60c08401611782565b60c082015260e083013582811115611a8357600080fd5b611a8f888286016117a7565b60e0830152506101009150611aa68783850161191a565b828201528093505050509250929050565b60008060408385031215611aca57600080fd5b8235611ad581611505565b91506020830135611ae58161178d565b809150509250929050565b600060208284031215611b0257600080fd5b8135611b0d81611505565b9392505050565b600060208284031215611b2657600080fd5b8135611b0d8161178d565b60008060808385031215611b4457600080fd5b8235611b4f81611505565b9150611b5e846020850161191a565b90509250929050565b60008060408385031215611b7a57600080fd5b823567ffffffffffffffff80821115611b9257600080fd5b611b9e8683870161162b565b93506020850135915080821115611bb457600080fd5b50611bc18582860161162b565b9150509250929050565b60008060408385031215611bde57600080fd5b8235611be981611505565b91506020830135611ae581611505565b600080600060608486031215611c0e57600080fd5b8335611c1981611505565b92506020840135611c298161178d565b929592945050506040919091013590565b82815260808101611b0d6020830184805163ffffffff90811683526020808301516001600160a01b03169084015260409182015116910152565b634e487b7160e01b600052603260045260246000fd5b634e487b7160e01b600052601160045260246000fd5b6000600019821415611cb457611cb4611c8a565b5060010190565b6020808252825182820181905260009190848201906040850190845b81811015611cf657835160070b83529284019291840191600101611cd7565b50909695505050505050565b60005b83811015611d1d578181015183820152602001611d05565b83811115611d2c576000848401525b50505050565b60008151808452611d4a816020860160208601611d02565b601f01601f19169290920160200192915050565b600081518084526020808501808196508360051b8101915082860160005b85811015611e155782840389528151604081518652868201519150808787015281511515818701528682015160606001600160a01b03808316828a015283850151935060a09250608083818b0152611dd760e08b0186611d32565b928601518a8403603f1901858c0152929450611df38584611d32565b9501511660c09890980197909752505098850198935090840190600101611d7c565b5091979650505050505050565b60006101608251818552611e3882860182611d32565b91505060208301518482036020860152611e528282611d32565b9150506040830151611e6f60408601826001600160a01b03169052565b5060608301518482036060860152611e878282611d32565b9150506080830151611e9d608086018215159052565b5060a0830151611eb260a086018260070b9052565b5060c0830151611ec660c086018215159052565b5060e083015184820360e0860152611ede8282611d5e565b61010085810151805163ffffffff9081168984015260208201516001600160a01b03166101208a015260408201511661014089015291935091505090949350505050565b6001600160a01b0383168152604060208201526000611f446040830184611e22565b949350505050565b60008251611f5e818460208701611d02565b9190910192915050565b8051600381900b811461152857600080fd5b600060208284031215611f8c57600080fd5b611b0d82611f68565b6001600160a01b038316815260808101611b0d6020830184805163ffffffff90811683526020808301516001600160a01b03169084015260409182015116910152565b600082611ff557634e487b7160e01b600052601260045260246000fd5b500490565b600081600019048311821515161561201457612014611c8a565b500290565b6000821982111561202c5761202c611c8a565b500190565b600080828403608081121561204557600080fd5b61204e84611f68565b92506060601f198201121561206257600080fd5b5061206b61158f565b602084015161207981611908565b8152604084015161208981611505565b6020820152606084015161209c81611908565b6040820152919491935090915050565b600080604083850312156120bf57600080fd5b6120c883611f68565b91506020830151611ae581611774565b6060815260006120eb6060830186611e22565b905067ffffffffffffffff8416602083015263ffffffff83166040830152949350505050565b6000806040838503121561212457600080fd5b61212d83611f68565b91506020830151611ae581611505565b6000606082016001600160a01b0386168352602067ffffffffffffffff8616818501526060604085015281855180845260808601915060808160051b870101935082870160005b828110156121b257607f198887030184526121a0868351611d32565b95509284019290840190600101612184565b50939998505050505050505050565b6000806000606084860312156121d657600080fd5b6121df84611f68565b925060208085015167ffffffffffffffff80821682146121fe57600080fd5b60408701519194508082111561221357600080fd5b508501601f8101871361222557600080fd5b80516122336116fc82611607565b81815260059190911b8201830190838101908983111561225257600080fd5b928401925b8284101561227957835161226a8161178d565b82529284019290840190612257565b80955050505050509250925092565b602081526000611b0d6020830184611e22565b634e487b7160e01b600052602160045260246000fdfea26469706673582212202dd8eb7d160c41a9e2dfd7f62f459d9bdbcb59dd7a1b1fa993b07eddf61fa9d664736f6c63430008080033",
	"linkReferences": {},
	"deployedLinkReferences": {}
}